:03000000020624D1
:0C062400787FE4F6D8FD75813F02052BBD
:1001BE00592D554E4C4F434B2020202020202020DF
:1001CE004E2D4348414E4745202020202020202000
:1001DE000007554E4C4F434B4544210007504C45AC
:1001EE00415345205645524946590007464F524500
:1001FE00564552204C4F434B45442C204C4F5345B3
:10020E00522E000756455249464945440007494E6D
:10021E00495449414C495A45205057000752452DE3
:10022E00454E544552000750415353574F524420A8
:10023E00534554212020434F4E47524154554C4173
:10024E0054494F4E2100074D4953545950452100F2
:10025E000A4E2D434C5220592D434F4E4649524D76
:10026E000007434C45415245442100074641494C45
:04027E00212020001B
:10052B00E4F521C2001205AB802E7BFF7A0179BE68
:10053B0012031AE5216479600DE521646E600712E0
:10054B0003A28F2180ED12042B9200E521248760FA
:10055B000C240B70D5E4F52112028280CDE4F52139
:10056B007BFF7A0179DF12031A7F051205D280BA5D
:10042B00E4F52278007C007D017BFF7A027979FE6E
:10043B007F091200DE7BFF7A0179EA12031A8052E0
:10044B00753A01753B00753C287B007A00792312C5
:10045B00057BB350480522E5222430FFC0077B0102
:10046B007A0079001205ED74FF2FF58274FF3EF5CB
:10047B0083D0E0F07B017A00790012031AE522C3E6
:10048B009403400E7BFF7A0179F912031AE4F5907D
:10049B0080FE7B007A0079231204B380A37BFF7A62
:0704AB0002791112031AD3BC
:0104B2002227
:06057B008B378A38893934
:10058100E4FFAB3AAA3BA93C8F82758300120104B8
:10059100FEAB37AA38A9398F827583001201046E28
:0905A1006002C3220FBF13DAD37C
:0105AA00222E
:10028200C2027BFF7A02791B12031A7B017A007980
:10029200001204B37BFF7A02792A12031A7B017AD5
:1002A2000079141204B3753A01753B00753C147B56
:1002B200017A00790012057B9202300227E4900055
:1002C20028F078287C007D017B017A007914FE7F7A
:1002D200141200DE7BFF7A02793412031A7F0512B0
:1002E20005D280277E007F147D007B017A00790091
:1002F2001201797E007F147D007B017A007914124D
:1003020001797BFF7A02795412031A200203020256
:010312008D5D
:0103130022C7
:0604B3008B378A388939FD
:1004B900C2017E007F147D0012017912031420010C
:1004C90060E4F53AE53AC3941450F31203A28F3B62
:1004D900E53B2492600C246F602624867026D201A5
:1004E90080387E007F147D00AB37AA38A939120104
:1004F90079E4F53A7BFF7A02796F12031A12031431
:10050900153A8016AB37AA38A939853A827583001E
:10051900E53B1201317F321200032001A1053A8027
:01052900A32E
:01052A0022AE
:1005AB00D2AFD2A9758902758C49758A49D28CC292
:1005BB00A6C2A77F381206027F0C1206027F061214
:0705CB0006027F0102060297
:10060200C2B58F807F05120615D2B47F051206157A
:03061200C2B4224D
:060314007BFF7A02795E16
:06031A008B3C8A3D893E88
:100320007F80120602E4F53FAB3CAA3DA93E1205D0
:10033000EDC3E53F9FEE6480F87480985063E53F1D
:10034000B410057FC0120602AB3CAA3DA93E853F12
:1003500082758300120104B40A07053F7FC01206AC
:1003600002AB3CAA3DA93E853F8275830012010481
:10037000B40707053F7F01120602D2B5AB3CAA3D88
:10038000A93E853F82758300120104F5807F01122A
:100390000615D2B47F01120615C2B4C2B5053F805E
:0103A00087D5
:0103A1002239
:1003A20002042585B03C7F0A120615E53C640F6005
:1003B2007275B0F07F0A120615E5B064F06064E56C
:1003C200B0253CF53C75B00F7F0A120615E5B0B4B6
:1003D2000FFBE53C12015304011004042004074002
:1003E20004167E040A80041FBC0413BE0422D8042F
:1003F2001CDC0410DE0419EC040DEE000004257F61
:1004020007227F08227F09227F79227F04227F052B
:10041200227F06227F6E227F01227F02227F032219
:090422007F002275B00F0203A552
:1005D2008F22E52275F005A4F522E522D39400408E
:0B05E200097F32120615152280F0225E
:0E061500EF75F005A4FFE4F508E508B507FB56
:0106230022B4
:03000B00020630BA
:0306300005083288
:08000300C2A3120615D2A322CC
:10000E00E709F608DFFA8046E709F208DFFA803ED4
:10001E0088828C83E709F0A3DFFA8032E309F608C1
:10002E00DFFA8078E309F208DFFA807088828C8329
:10003E00E309F0A3DFFA806489828A83E0A3F608DD
:10004E00DFFA805889828A83E0A3F208DFFA804CB7
:10005E0080D280FA80C680D4806980F2803380108E
:10006E0080A680EA809A80A880DA80E280CA8033F7
:10007E0089828A83ECFAE493A3C8C582C8CCC5836F
:10008E00CCF0A3C8C582C8CCC583CCDFE9DEE7803F
:10009E000D89828A83E493A3F608DFF9ECFAA9F0BE
:1000AE00EDFB2289828A83ECFAE0A3C8C582C8CC14
:1000BE00C583CCF0A3C8C582C8CCC583CCDFEADE2D
:1000CE00E880DB89828A83E493A3F208DFF980CC8F
:1000DE0088F0EF60010E4E60C388F0ED2402B40488
:1000EE000050B9F582EB2402B4040050AF2323452F
:0600FE00822390005E73F6
:10010400BB010CE58229F582E5833AF583E02250B0
:1001140006E92582F8E622BBFE06E92582F8E222FA
:0D012400E58229F582E5833AF583E4932214
:10013100F8BB010DE58229F582E5833AF583E8F004
:10014100225006E92582C8F622BBFE05E92582C8B0
:02015100F22298
:10015300D083D082F8E4937012740193700DA3A33B
:1001630093F8740193F5828883E47374029368604F
:06017300EFA3A3A380DF4F
:1005ED00E4FFFE1201A5600C0FEF70010E09E9701A
:0505FD00F20A80EF226C
:10017900EF4E6012EF60010EEDBB010B89828A839D
:10018900F0A3DFFCDEFA2289F05007F709DFFCA9AA
:0C019900F022BBFEFCF309DFFCA9F02201
:1001A500BB010689828A83E0225002E722BBFE0258
:0901B500E32289828A83E493228B
:00000001FF
