:030000000205A551
:0C05A500787FE4F6D8FD75813002055F18
:1001BE0007504C4541534520564552494659000774
:1001CE00464F5245564552204C4F434B45442C20EA
:1001DE004C4F5345522E0007564552494649454409
:1001EE000007494E495449414C495A452050570041
:1001FE000752452D454E5445520007504153535713
:10020E004F524420534554212020434F4E475241D4
:10021E0054554C4154494F4E2100074D49535459A2
:10022E00504521000A4E2D434C5220592D434F4E1E
:10023E004649524D0007434C454152454421000763
:08024E004641494C212020002B
:10055F00E4F51DC2021205861203768F1DE51DF408
:04056F00F59080F48F
:1003FF00E4F508783C7C007D017BFF7A02794DFEA5
:10040F007F091200DE7BFF7A0179BE1202EE805265
:10041F007524017525007526287B007A007909124D
:10042F0004FFB350480508E5082430FFC0077B01DF
:10043F007A00793C12054A743B2FF58274003EF521
:10044F0083D0E0F07B017A00793C1202EEE508C31D
:10045F009403400E7BFF7A0179CD1202EEE4F59002
:10046F0080FE7B007A00790912048780A37BFF7AD4
:07047F000179E51202EED342
:010486002253
:0604FF008B218A228923F3
:10050500E4FFAB24AA25A9268F8275830012010476
:10051500FEAB21AA22A9238F827583001201046EE6
:090525006002C3220FBF13DAD3F8
:01052E0022AA
:10025600C2007BFF7A0179EF1202EE7B017A007908
:10026600001204877BFF7A0179FE1202EE7B017A87
:100276000079141204877524017525007526147BF0
:10028600017A0079001204FF9200300027E4900002
:1002960028F078287C007D017B017A007914FE7FA6
:1002A600141200DE7BFF7A0279081202EE7F051235
:1002B600052F80277E007F147D007B017A00790060
:1002C6001201797E007F147D007B017A0079141279
:1002D60001797BFF7A0279281202EE2000030202DE
:0102E60061B6
:0102E70022F4
:060487008B278A28892959
:10048D00C2017E007F147D001201791202E8200165
:10049D0060E4F52AE52AC3941450F31203768F2BEA
:1004AD00E52B2492600C246F602624867026D201E1
:1004BD0080387E007F147D00AB27AA28A929120160
:1004CD0079E4F52A7BFF7A0279431202EE1202E8F3
:1004DD00152A8016AB27AA28A929852A827583009B
:1004ED00E52B1201317F321200032001A1052A8074
:0104FD00A35B
:0104FE0022DB
:10058600D2AFD2A9758902758C49758A49D28C2257
:10057300C2B58F807F05120596D2B47F051205960A
:03058300C2B422DD
:0602E8007BFF7A0279326F
:0602EE008B2C8A2D892EE5
:1002F4007F80120573E4F52FAB2CAA2DA92E1205CD
:100304004AC3E52F9FEE6480F87480985063E52F0C
:10031400B410057FC0120573AB2CAA2DA92E852F0E
:1003240082758300120104B40A07052F7FC01205E9
:1003340073AB2CAA2DA92E852F827583001201047C
:10034400B40707052F7F01120573D2B5AB2CAA2D74
:10035400A92E852F82758300120104F5807F011276
:100364000596D2B47F01120596C2B4C2B5052F809A
:010374008701
:010375002265
:100376000203F985B01E7F0A120596E51E640F601A
:100386007275B0F07F0A120596E5B064F06064E518
:10039600B0251EF51E75B00F7F0A120596E5B0B49E
:1003A6000FFBE51E12015303D51003D82003DB40D3
:1003B60003EA7E03DE8003F3BC03E7BE03F6D8033D
:1003C600F0DC03E4DE03EDEC03E1EE000003F97F6D
:1003D60007227F08227F09227F79227F04227F0558
:1003E600227F06227F6E227F01227F02227F032246
:0903F6007F002275B00F020379AB
:10052F008F1FE51F75F005A4F51FE51FD39400403D
:0B053F00097F32120596151F80F02284
:0E059600EF75F005A4FFE4F530E530B507FB86
:0105A4002234
:03000B000205B13A
:0305B100053032E0
:08000300C2A3120596D2A3224C
:10000E00E709F608DFFA8046E709F208DFFA803ED4
:10001E0088828C83E709F0A3DFFA8032E309F608C1
:10002E00DFFA8078E309F208DFFA807088828C8329
:10003E00E309F0A3DFFA806489828A83E0A3F608DD
:10004E00DFFA805889828A83E0A3F208DFFA804CB7
:10005E0080D280FA80C680D4806980F2803380108E
:10006E0080A680EA809A80A880DA80E280CA8033F7
:10007E0089828A83ECFAE493A3C8C582C8CCC5836F
:10008E00CCF0A3C8C582C8CCC583CCDFE9DEE7803F
:10009E000D89828A83E493A3F608DFF9ECFAA9F0BE
:1000AE00EDFB2289828A83ECFAE0A3C8C582C8CC14
:1000BE00C583CCF0A3C8C582C8CCC583CCDFEADE2D
:1000CE00E880DB89828A83E493A3F208DFF980CC8F
:1000DE0088F0EF60010E4E60C388F0ED2402B40488
:1000EE000050B9F582EB2402B4040050AF2323452F
:0600FE00822390005E73F6
:10010400BB010CE58229F582E5833AF583E02250B0
:1001140006E92582F8E622BBFE06E92582F8E222FA
:0D012400E58229F582E5833AF583E4932214
:10013100F8BB010DE58229F582E5833AF583E8F004
:10014100225006E92582C8F622BBFE05E92582C8B0
:02015100F22298
:10015300D083D082F8E4937012740193700DA3A33B
:1001630093F8740193F5828883E47374029368604F
:06017300EFA3A3A380DF4F
:10054A00E4FFFE1201A5600C0FEF70010E09E970BD
:05055A00F20A80EF220F
:10017900EF4E6012EF60010EEDBB010B89828A839D
:10018900F0A3DFFCDEFA2289F05007F709DFFCA9AA
:0C019900F022BBFEFCF309DFFCA9F02201
:1001A500BB010689828A83E0225002E722BBFE0258
:0901B500E32289828A83E493228B
:00000001FF
